:020000040800F2
:1000000050A401209D010008E9DF0008D1BA0008D2
:10001000B1DE0008D50E0008CD8501080000000003
:1000200000000000000000000000000031F20008A5
:10003000F52A00080000000071E7000839F8000800
:10004000B7010008B7010008B7010008B7010008B0
:10005000C92D0008B7010008B7010008B701000862
:10006000B7010008752C0008812C0008B7010008B2
:100070006D2500087D250008B7010008B7010008BC
:10008000B7010008B7010008B7010008B701000870
:10009000D90E0008E90E0008B70100088D2C0008F1
:1000A000B7010008B7010008B7010008B701000850
:1000B000B7010008B7010008B7010008B701000840
:1000C000B7010008E5BA0008D5BA0008F5F1000844
:1000D000B7010008B7010008B7010008F14C01089A
:1000E000B7010008B7010008B7010008B701000810
:1000F000B701000839F90008B70100088D2500088C
:10010000B7010008B701000829F90008B701000885
:10011000B7010008B7010008B7010008B7010008DF
:100120009D250008AD250008B7010008BD25000881
:10013000B7010008B7010008B7010008B7010008BF
:10014000F90E0008090F0008B701000859E000087F
:10015000B7010008CD250008B7010008114D0108BE
:10016000B7010008B7010008B7010008B70100088F
:10017000B7010008B7010008B7010008000000003F
:10018000B7010008B7010008DFF80CD000F066FCEA
:1001900000480047799C010850A401200648804788
:1001A00006480047FEE7FEE7FEE7FEE7FEE7FEE75C
:1001B000FEE7FEE7FEE7FEE715F900088901000803
:1001C0009FED1A1AF5EE000A40EE010ABDEEE00AB4
:1001D000F5EEC00A10EE100AF1EE10FA38BF401E1C
:1001E00000EE100A1349F7EE001AB8EEC00A30EE1E
:1001F000C00ADFED0F0A20EE200AFCEEC00A10EE66
:10020000900AC0F3080000EE900A01EB8000F8EEBF
:10021000600A90ED011A70EE600A90ED000A71EE2E
:10022000E01A21EE800A00EE810A704783F9223E2F
:100230000000004444E50108B5EEC00AF1EE10FAF2
:1002400007D2DFED1E0AB4EEE00AF1EE10FAA8BF05
:100250007047DFED1B0AB5EEC00A60EE200ABDEE66
:10026000E01A11EE100AF1EE10FA38BF401E00EE4F
:10027000100A1549F7EE001AB8EEC00A30EEC00AAF
:10028000DFED100A60EE200ABCEEE00A10EE100A64
:10029000C0F3080000EE100A01EB8000B8EE400A3F
:1002A00090ED011A70EEC00A90ED000A71EEE01AAE
:1002B00021EE800A00EE810A70470000CD024CB4A6
:1002C00083F9223E0000004444E501080180428099
:1002D000436070472DE9F05F0546002092469B463B
:1002E00088460646814640241BE02846414647464C
:1002F000224600F0E4FA53465A46C01A914110D300
:1003000011461846224600F0CBFA2D1A67EB010879
:100310004F4622460120002100F0C2FA17EB0009E7
:100320004E41201EA4F10104DFDC484631462A4636
:100330004346BDE8F09F40EA01039B0703D009E074
:1003400008C9121F08C0042AFAD203E011F8013BC1
:1003500000F8013B521EF9D27047D2B201E000F81A
:10036000012B491EFBD270470022F6E710B5134659
:100370000A4604461946FFF7F0FF204610BD10B5A7
:10038000002200E0521C835C8C5CA34201D1002B54
:10039000F8D1D8B2E1B2401A10BD034611F8012BD2
:1003A00000F8012B002AF9D1184670472DE9FE4FBD
:1003B000804681EA0300C00F0C46009021F0004106
:1003C00023F00045B8EB0200A94105D24046214682
:1003D00090461C460B46024623F00040104347D08F
:1003E000270DC7F30A00C3F30A510290401A019087
:1003F00040286BDAC3F3130040F4801B0098924648
:1004000020B10023D2EB030A63EB0B0B0198594692
:10041000C0F14002504600F043FA06460D465046F1
:100420005946019A00F05BFA10EB08006141002484
:1004300087EA115284EAE7731A4340D0009A62B304
:10044000019A012A4FEA075215DC001B61EB0201F9
:100450004FF0004202EA0752CDE90042001C41F58C
:10046000801132462B4600F092FA03B0BDE8F08FBF
:1004700040462146F9E7001B61EB0201001C41F5F3
:10048000801300185B412018A2F5001747EB030109
:1004900040EAD570B6196D4111E06D084FEA360695
:1004A00045EAC0754FEA0752001B61EB0201001CD0
:1004B00041F5801149084FEA300000195141324698
:1004C0002B4603B0BDE8F04F00F052BA009801226D
:1004D00040000023D0EB020263EBE073009821465A
:1004E0004FEAE074B8EB000061EB0401E9E783F048
:1004F00000435BE781F0004158E72DE9FE4F81EAB8
:10050000030404F0004421F0004100944FF0000B7C
:1005100023F0004350EA01045ED052EA03045BD0AA
:10052000C3F30A54C1F30A552C44A4F2F3340194E2
:10053000A0FB0254C1F3130141F48011C3F3130370
:1005400043F4801301FB024400FB034E840A970A24
:1005500044EA815447EA8357A4FB076802958D0A51
:1005600005FB07854FEA932C04FB0C542705029DDD
:100570004FEA065847EA1637B5EB08056EEB070C4D
:10058000870E920E47EA811742EA8312A7FB020107
:10059000B6EB0B0164EB00042B0D43EA0C335E1841
:1005A00044EB1C50DA465146E7FB0201C5F3130445
:1005B0004FEA0B3343EA14534FEA0432019C43EAF7
:1005C0000603A4F10C040294009CCDE900B400F0F1
:1005D000DEF903B0BDE8F08F00200146F9E72DE910
:1005E000F04D81EA030404F0004B21F0004514466D
:1005F0004FF0000A23F0004150EA050220D054EAEF
:1006000001021DD0C5F30A570246C5F31303C1F317
:100610001300C1F30A5640F4801543F48013A7EB8E
:100620000608101BD64608F2FD3873EB050002D30E
:1006300008F1010801E092185B41B8F1000F03DAFC
:1006400000200146BDE8F08D00204FF480110646E1
:1006500084460EE0171B73EB050705D3121B63EBF3
:10066000050306434CEA010C49084FEA3000921892
:100670005B4150EA0107EDD152EA030012D082EA51
:10068000040083EA0501084305D0101BAB4106D2E4
:100690000122002306E000224FF0004302E06FF049
:1006A000010253101AEB06004CEB085110EB0A0044
:1006B00041EB0B01BDE8F04D00F05AB930B5041E16
:1006C00071F1000404DB4FF00044404264EB01018F
:1006D000141E73F1000405DB1C464FF00043524228
:1006E00063EB0403101A8B4101D2012030BD0020BE
:1006F00030BD30B5041E71F1000404DB4FF000443E
:10070000404264EB0101141E73F1000405DB1C463A
:100710004FF00043524263EB0403101A8B4101D3A4
:10072000012030BD002030BD30B5041E71F1000441
:1007300004DB4FF00044404264EB0101141E73F1EE
:10074000000405DB1C464FF00043524263EB0403F8
:10075000801A994101D2012030BD002030BD30B552
:10076000041E71F1000404DB4FF00044404264EBCE
:100770000101141E73F1000405DB1C464FF0004319
:10078000524263EB040342404B401A4301D0002025
:1007900030BD012030BD0EB5C10F80EAE0700844C5
:1007A000CA07002140F233438DE80E000A460B468B
:1007B00000F0EDF803B000BD0EB540F233410291F8
:1007C0000021CDE900110A460B4600F0E0F803B025
:1007D00000BD70B5C1F30A5201F000450024C1F319
:1007E000130140F2FF3341F480119A4201DA0020F4
:1007F00070BD40F233439A42A2F2334203DC5242CC
:1008000000F05DF800E090402C43F1D0404270BD14
:10081000C1F30A5210B5C1F3130140F2FF3341F4A2
:1008200080119A4201DA002010BD40F233439A420F
:10083000A2F2334203DC524200F041F810BD904076
:1008400010BD00F0004230F000400AD0C10D01F5AB
:100850006071C0F3160042EA0151C208400711431B
:10086000704700200146704701F0004330B421F08A
:10087000004150EA010206D00A0DA2F56072C1F3F0
:100880001301002A02DC30BC00207047440F44EA08
:10089000C104C100E01830BC00EBC25000F031B818
:1008A000202A04DB203A00FA02F100207047914030
:1008B000C2F1200320FA03F3194390407047202A25
:1008C00004DB203A21FA02F00021704721FA02F3FA
:1008D000D040C2F120029140084319467047202AB7
:1008E00006DBCB17203A41FA02F043EAE07306E058
:1008F00041FA02F3D040C2F1200291400843194668
:1009000070470029A8BF7047401C490008BF20F06D
:100910000100704710B4B0FA80FC00FA0CF050EA05
:10092000010404BF10BC704749B1CCF1200421FA86
:1009300004F411FA0CF118BF012121430843A3EB81
:100940000C01CB1D4FEA00614FEA102042BF00208E
:1009500010BC704700EBC35010440029A4BF10BC6A
:100960007047401C490008BF20F0010010BC7047D0
:1009700010B5141E73F1000408DA401C41F10001A7
:1009800092185B411A4301D120F0010010BD2DE9FE
:10099000F04D92469B4611B1B1FA81F202E0B0FAF5
:1009A00080F220329046FFF77BFF04460F4640EA74
:1009B0000A0041EA0B0153465A46084313D0114638
:1009C00053EA010019D0C8F140025046FFF777FF03
:1009D00005460E46504659464246FFF761FF08431A
:1009E00005D0012004E020463946BDE8F08D002006
:1009F000054346EAE0762C4337430A986305E40A48
:100A0000A0EB08000022FD0A44EA47540A3002D550
:100A100000200146E9E7010510196941DDE90845B3
:100A200000196941BDE8F04DA2E7000030B5041E91
:100A300071F1000404DB4FF00044404264EB01011B
:100A4000141E73F1000405DB1C464FF000435242B4
:100A500063EB04038B4208BF824230BD064C074D56
:100A600006E0E06840F0010394E80700984710347E
:100A7000AC42F6D3FFF78CFBC8F5010808F6010875
:100A800070B58C1810F8015B15F0070301D110F850
:100A9000013B2A1106D110F8012B03E010F8016B7D
:100AA00001F8016B5B1EF9D12B0705D40023521E00
:100AB0000DD401F8013BFAE710F8013BCB1A921C68
:100AC00003E013F8015B01F8015B521EF9D5A14266
:100AD000D8D3002070BD000082B08DED010A9DEDDD
:100AE000010AB5EE400AF1EE10FA05DDFFE79DEDD3
:100AF000010A8DED000A06E09DED010AB1EE400A03
:100B00008DED000AFFE79DED000A02B0704700007E
:100B100080B582B001900198D0F83500009001981E
:100B200090F8282041F24461C2F200010A71406A43
:100B30000860009900200875009948750099012007
:100B400088750098D0F8170002F0BCF902B080BD9B
:100B500086B0DDF834C0DDF830C0DDF82CC0DDF83B
:100B600028C0DDF824C0DDF820C0DDF81CC0DDF8A9
:100B700018C0059004910392029300208DF807009D
:100B8000FFE79DF8071000200229009009DCFFE72D
:100B900004989DF80710405C002818BF01200090C1
:100BA000FFE70098C00770B1FFE704989DF80720A1
:100BB000805C0599891A8870FFE79DF8070001306D
:100BC0008DF80700DDE70599D1F80320D1F807304B
:100BD000D1F80B004FF0040C6CF3C502C1F80730DC
:100BE000C1F80320C1F80B00DDF80CC00599D1F85D
:100BF0000320D1F80730D1F80B006CF30202C1F8E2
:100C00000730C1F80320C1F80B00DDF808C00599D2
:100C1000D1F80320D1F80730D1F80B000CF00F0CFD
:100C200022F4707242EA8C12C1F80730C1F8032036
:100C3000C1F80B00DDF818C00599D1F80320D1F8F0
:100C40000730D1F80B000CF00F0C22F4705242EA7E
:100C50008C22C1F80730C1F80320C1F80B00DDF881
:100C600024C00599D1F80330D1F80720D1F80B0042
:100C70006CF30902C1F80330C1F80720C1F80B007A
:100C8000DDF828C00599D1F80330D1F80720D1F854
:100C90000B006FF3DF2C6FF3942242EA8C22C1F831
:100CA0000330C1F80720C1F80B00DDF82CC005990E
:100CB000D1F80330D1F80720D1F80B006FF35F5261
:100CC00042EA4C52C1F80330C1F80720C1F80B00CA
:100CD000DDF81CC00599D1F80320D1F80730D1F810
:100CE0000B006FF35F2C6FF3963242EA8C32C1F83F
:100CF0000730C1F80320C1F80B00DDF820C00599CA
:100D0000D1F80320D1F80730D1F80B006FF3DF5290
:100D100042EACC52C1F80730C1F80320C1F80B00F9
:100D2000DDF830C00599D1F80320D1F80730D1F8AB
:100D30000B006FF3DF2C6FF3942040EA8C20C1F896
:100D40000730C1F80320C1F80B00DDF834C0059965
:100D5000D1F80320D1F80730D1F80B006FF35F50C2
:100D600040EA4C50C1F80730C1F80320C1F80B002D
:100D700006B0704780B584B08DF80F0002910298DC
:100D800000680068C006002840F18E80FFE70298E6
:100D90000068C068C006002840F18680FFE7FFE7D2
:100DA0000020019002980068006801900298006895
:100DB000406801900198FFE702980AF023F99DF836
:100DC0000F104DF66070C2F2010050F82100007B58
:100DD00070BBFFE79DF80F104DF66070C2F2010086
:100DE00050F82120012111739DF80F1050F82100B7
:100DF000D0F80D0068B1FFE79DF80F104DF6607058
:100E0000C2F2010050F821100868D1F80D1088478F
:100E1000FFE702989DF80F204DF66071C2F20101C4
:100E200051F822205168B2F811200AF01BFD2DE084
:100E30009DF80F104DF66070C2F2010050F82120AD
:100E4000002111739DF80F1050F82100D0F80D000B
:100E500068B1FFE79DF80F104DF66070C2F2010017
:100E600050F821104868D1F80D108847FFE7029824
:100E70009DF80F204DF66071C2F2010151F8222059
:100E80001168B2F811200AF0EDFCFFE70298006843
:100E90000068000738B1FFE7029800680068029810
:100EA00000684068FFE7FFE704B080BD80B582B00E
:100EB000019001984DF66071C2F2010109688968DC
:100EC000884205D1FFE701990020FFF753FFFFE7B4
:100ED00002B080BDFFE7FEE780B540F6CC00C2F26D
:100EE000000002F007FE80BD80B540F6CC00C2F2E3
:100EF000000002F0FFFD80BD80B54DF6AC30C2F2BF
:100F0000010002F0F7FD80BD80B54DF6AC30C2F2B5
:100F1000010002F0EFFD80BD80B58CB00B90012088
:100F20000790002108914DF63461C2F20101097861
:100F3000884305900E200A900B98C06A40010290E9
:100F40000B98006840F6CC01C2F20001884209D13A
:100F5000FFE740F26A12C2F200021078411C1170E1
:100F6000009008E04CF20A02C2F201021078411C23
:100F700011700090FFE700980690012009900B98EF
:100F8000006801A902F0ACFB0CB080BD2DE9F04F68
:100F9000A7B006903A980590DDF8E4B0DDF8E0A03F
:100FA000DDF8DC90DDF8D880359F349E339D329C8F
:100FB000DDF8C4E0DDF8C0C00698059817900698E3
:100FC000CDF858B0CDF854A0CDF85090CDF84C8065
:100FD0001297119610950F94CDF838E0CDF834C0E3
:100FE0000C930B920A91099018A809A93A22FFF7CD
:100FF000A2F9272007901DF0F7F9079908900898A3
:10100000FFF7B2F99DF87500089988729DF8750090
:1010100003300899C8729DF8750003301AF044F83F
:101020000899C8609DF87400089908719DF87400CB
:1010300003301AF039F80899C1F806009DF87400D9
:101040000330089948719DF875001AF02DF8089939
:1010500008610898D0F80610732008709DF8740095
:101060000899D1F8061048700898D0F806109DF835
:10107000740001446520887008981C901B9830B952
:10108000FFE741F23D10C0F600001B90FFE7189803
:1010900019991A9A1B9BDDF870C0EE46CEF800C075
:1010A00000F0BCF80899086041F20910C0F6000091
:1010B000CDF876000898CDF88600DDF87600DDF8EA
:1010C0007A10DDF87E20DDF88230DDF886C0DDF8AC
:1010D0008A40DDF88E50DDF89260DDF89670EE46BD
:1010E000CEF81070CEF80C60CEF80850CEF8044060
:1010F000CEF800C017F08CFA0899C1F817000898CC
:1011000027B0BDE8F08F000080B582B00190019853
:101110000090009800F002F802B080BD80B582B067
:1011200001900199C868497DFFF71EF901990020D7
:1011300008750199487502B080BD000080B582B085
:1011400001900198D0F835000090019890F82400A3
:10115000732812D1FFE70098007D70B9FFE701986E
:1011600090F825000099897A884204D1FFE7009918
:101170000120087500E04EE0FFE70098007D0028A0
:1011800049D0FFE70098C17A407D019A92F830205B
:101190001044884204DDFFE70098FFF7BFFF3AE004
:1011A0000099C868497D0844019A02F1240192F827
:1011B0003020FFF7C0F8019890F830200099487D62
:1011C000104448750098C17A407D884222D1FFE7DB
:1011D0000098C168C07A084410F8010C652815D140
:1011E000FFE7009A1069D1680231927AFFF7A3F8FD
:1011F00000990020087500994875009901208875AC
:101200000098D0F8170001F05DFEFFE70098FFF7A7
:1012100085FF00E0FFE702B080BD000080B588B028
:10122000DDF828C0CDF81CC0069305920491039008
:10123000392001901DF0D8F8019902900298FFF72B
:1012400093F804980299486002990020C8600299B6
:101250000861029A0821516102990876039802995F
:10126000086004980299C86105980299C8620698B6
:101270000299C1F8310007980299C1F83500029827
:1012800090F8300028B9FFE70299082081F8300073
:10129000FFE7039840F6CC01C2F20001884206D174
:1012A000FFE74DF68C20C2F20100007807E040F223
:1012B0002C42C2F200021078411C1170FFE7029824
:1012C0004DF63462C2F2010213784DF69021C2F25B
:1012D000010141F823001078411C117018B9FFE793
:1012E00000F008F8FFE70298FFF716FE029808B032
:1012F00080BD000080B584B040F6CC00C2F2000092
:10130000009002F0D7FF00980221019102F012F93B
:1013100000981021029102F00DF94DF6AC30C2F2A6
:101320000100039002F0C6FF0199039802F002F950
:101330000299039802F0FEF804B080BD80B58CB02D
:101340000B900A9109920A9803900020049005904E
:101350000690082107918DF8200002900B98099AB9
:1013600003A902AB02F010F98DF807009DF8070001
:101370000CB080BD84B08DF80F000291ADF806204E
:101380009DF80F000146009123281DD80099DFE841
:1013900001F012131415161B1B1B1B1B1B1B1B1B05
:1013A0001B1B1B1B1B1B1B1B1B1B1B1B1B1B1B1B8D
:1013B0001B1B1718191A08E007E006E005E004E017
:1013C00003E002E001E000E0FFE7002004B0704726
:1013D0000020704780B582B040F2F050C2F20000A9
:1013E00000904DF27621C2F201010022019214F028
:1013F00031F800984CF67621C2F2010114F00CF895
:10140000019802B080BD000080B584B003900291C5
:10141000039940F2F050C2F20000019013F0FCFF7B
:10142000019813F09FFF002004B080BD83B00290AC
:1014300001918DF8032000208DF802009DF9020033
:1014400003B0704780B586B005900491FFE705981A
:10145000049902F01BFA00286CD0FFE70598049964
:1014600040F26C12C2F2000202AB02F039FA002024
:101470008DF80700FFE79DF807004DF63461C2F2D2
:1014800001010978884254DAFFE705989DF80720A2
:101490004DF69021C2F2010151F8221009688842EC
:1014A00040D1FFE740F26C10C2F2000000689DF8E6
:1014B00007204DF69021C2F2010151F82210C96AAD
:1014C00088422FD1FFE740F26C11C2F200010A6995
:1014D0009DF807304DF69020C2F20100009050F8C0
:1014E000233083F830209DF8072050F82200243064
:1014F0000A6902A9FEF71FFF00989DF8071050F82F
:101500002100D0F8310060B1FFE79DF807104DF6DB
:101510009020C2F2010050F82100D0F83110884725
:10152000FFE707E0FFE79DF8070001308DF80700AF
:10153000A1E78CE706B080BD86B0DDF830C0DDF8ED
:101540002CC0DDF828C0DDF824C0DDF820C0DDF8AF
:101550001CC0DDF818C0059004910392029300208E
:101560008DF80700FFE79DF8071000200229009082
:1015700009DCFFE704989DF80710405C002818BFBD
:1015800001200090FFE70098C00770B1FFE70498C2
:101590009DF80720805C0599891A8870FFE79DF8FF
:1015A000070001308DF80700DDE70599D1F8032029
:1015B000D1F80730D1F80B0042F03802C1F80730FB
:1015C000C1F80320C1F80B00DDF80CC00599D1F873
:1015D0000320D1F80730D1F80B006CF30202C1F8F8
:1015E0000730C1F80320C1F80B00DDF808C00599E9
:1015F000D1F80320D1F80730D1F80B000CF00F0C14
:1016000022F4707242EA8C12C1F80730C1F803204C
:10161000C1F80B00DDF818C00599D1F80320D1F806
:101620000730D1F80B000CF00F0C22F4705242EA94
:101630008C22C1F80730C1F80320C1F80B00DDF897
:1016400024C00599D1F80330D1F80720D1F80B0058
:101650006CF30902C1F80330C1F80720C1F80B0090
:10166000DDF828C00599D1F80330D1F80720D1F86A
:101670000B006FF3DF2C6FF3942242EA8C22C1F847
:101680000330C1F80720C1F80B00DDF82CC0059924
:10169000D1F80330D1F80720D1F80B006FF35F5277
:1016A00042EA4C52C1F80330C1F80720C1F80B00E0
:1016B000DDF81CC00599D1F80320D1F80730D1F826
:1016C0000B006FF35F2C6FF3963242EA8C32C1F855
:1016D0000730C1F80320C1F80B00DDF820C00599E0
:1016E000D1F80320D1F80730D1F80B006FF3DF52A7
:1016F00042EACC52C1F80730C1F80320C1F80B0010
:1017000000208DF80600FFE79DF806000899884242
:1017100011D2FFE70C98007805999DF80620114436
:10172000C8730C9801300C90FFE79DF8060001305B
:101730008DF80600E8E706B0704700002DE9F04795
:10174000A0B0DDF8BC90DDF8B8802D9F2C9E2B9DBD
:101750002A9CDDF8A4E0DDF8A0C0CDF84C90CDF8CF
:101760004880119710960F950E94CDF834E0CDF87F
:1017700030C00B930A920991089014A8009008A910
:101780002D220192FEF7D7FDA5208DF818003320F9
:10179000ADF819004CF2F850C2F201000390007845
:1017A0008DF81B0006A8042101F0B6FC8DF81C0082
:1017B00040F20130ADF81D004FF48870ADF8100014
:1017C00040F2C420C2F200000178ADF81210007897
:1017D00000F58070ADF814004CF27850C2F20100B0
:1017E00002907F21FEF7C0FD0099019A0298069BA6
:1017F000DDF81BC0C0F803C00360BDF81430A0F8CA
:101800000B30049BC0F807300D30FEF794FD0298B2
:101810003A2101F049FC0299488741F25C00C2F28A
:1018200000003C220AF0DAF80399087801300870C9
:10183000002020B0BDE8F0872DE9F04FEFB04EF664
:101840004A71C0F6010160A80B903A221292FEF78D
:1018500072FD0B99129A51A8FEF76DFD51980D90EB
:101860005299539A549BDDF854C1569C579D589EEB
:10187000599FDDF86881DDF86C91DDF870A1DDF825
:1018800074B15E980C905F98EE46CEF828000C98E4
:10189000CEF824000D98CEF820B0CEF81CA0CEF8DB
:1018A0001890CEF81480CEF81070CEF80C60CEF8F8
:1018B0000850CEF80440CEF800C0FFF767FB4DF6A5
:1018C000D021C2F2010108604FF2DE20C0F6010013
:1018D0000A210DF013FE40F24041C2F200010860FF
:1018E0004FF2EB20C0F6010010210CF099FF4DF6ED
:1018F000D421C2F2010108604FF2FF20C0F60100BE
:1019000025210DF0FBFD41F25461C2F20001086097
:101910004FF2F720C0F601000D210CF081FF129A62
:101920004DF61071C2F2010108604EF61071C0F65A
:10193000010142A80E90FEF7FEFC0E99129A33A800
:10194000FEF7F9FC339810903499359A369BDDF800
:10195000DCC0389C399D3A9E3B9FDDF8F080DDF875
:10196000F490DDF8F8A0DDF8FCB040980F904198B5
:10197000EE46CEF828000F98CEF824001098CEF846
:1019800020B0CEF81CA0CEF81890CEF81480CEF877
:101990001070CEF80C60CEF80850CEF80440CEF8A7
:1019A00000C0FFF7F3FA129A40F21811C2F20001D8
:1019B00008604EF68471C0F6010124A81190FEF76C
:1019C000BAFC1199129A15A8FEF7B5FC1598149057
:1019D0001699179A189BDDF864C01A9C1B9D1C9ED3
:1019E0001D9FDDF87880DDF87C90DDF880A0DDF8C3
:1019F00084B0229813902398EE46CEF828001398CE
:101A0000CEF824001498CEF820B0CEF81CA0CEF862
:101A10001890CEF81480CEF81070CEF80C60CEF886
:101A20000850CEF80440CEF800C0FFF7AFFA4DF6EC
:101A30008821C2F2010108606FB0BDE8F08F00009C
:101A400080B5D4B041F2A060C2F20000DFED5B0AC5
:101A5000CDED000A00210791B0EE600A0DF012FDF5
:101A6000DDED000A07994DF62470C2F20100B0EED8
:101A7000600A0DF007FD079941F28460C2F2000090
:101A80009FED4F0ADFED4F0A0DF0FCFC4FF208010D
:101A9000C0F6010141A801904A220492FEF74BFCD6
:101AA000019800F0C5FC049A40F25041C2F20001D6
:101AB000069108604EF6BE71C0F601012EA8029094
:101AC000FEF739FC029800F0B3FC049A06994860CE
:101AD0004FF25201C0F601011BA80390FEF72BFC48
:101AE000039800F0A5FC049A069988604FF29C01C7
:101AF000C0F6010108A80590FEF71DFC059800F04E
:101B000097FC069A01460798D16040F24441C2F220
:101B100000010881486008604FF2DE20C0F6010035
:101B20000A210CF07DFE40F27041C2F20001086013
:101B30004FF2EB20C0F6010010210DF0DFFC0799F9
:101B4000024606984DF69033C2F201031A604DF634
:101B5000D822C2F20102D160916051601160C06868
:101B600000F014FC0698006800F010FC069840682D
:101B700000F00CFC0698806800F008FC06980799B5
:101B800001229FED110ADFED110A9FED111A0BF0F2
:101B9000E3FF41F2BC01C2F2000142F26560C3F60C
:101BA000B95008604EF24C41C2F201014BF2E32001
:101BB000C3F65C40086054B080BD00BF0AD7233C28
:101BC0002EE3CD3B2EE34D3C15F8983C0000C84376
:101BD0009A99393F80B582B001900198D0F83500CC
:101BE00000900199486A8A6A41F24A61C2F2000192
:101BF0004A600860009900200875009948750099AE
:101C0000012088750098D0F8170001F05BF902B048
:101C100080BD00000000000080B588B000208DF875
:101C20001F0040F25040C2F200000168D1F80B20C2
:101C30004DF68031C2F201010A604268D2F80B20F1
:101C40004A608268D2F80B208A60C068D0F80B0026
:101C5000C8604DF69030C2F2010000684DF6D82100
:101C6000C2F201010DF032FC012807D0FFE74DF66A
:101C7000D821C2F201010020087074E04DF6D8208E
:101C8000C2F20100407B012807D1FFE74DF6D821C1
:101C9000C2F201010020087064E04DF69860C2F2C3
:101CA0000100D0F81F1081F0004100EE101A4DF62F
:101CB000D822C2F201020692D2F8011001EE101AE7
:101CC00020EE010A9FED701A80EE010A30EE000A44
:101CD0004DF65071C2F20101059181ED000AD0F874
:101CE0001F3000EE103AD2F8052002EE102A20EE46
:101CF000020A80EE010A30EE000A81ED010AD0F8F6
:101D00001F00FEF79EFD41EC100B9FED5D1B53EC99
:101D1000112B51EC100BFEF749FB0246069801927D
:101D20000A46019942EC101B8DED020BD0F8090018
:101D3000FEF787FD9DED021B41EC100B51EC110BE2
:101D400053EC102BFEF7D9FB41EC100B51EC100BB0
:101D5000FEF78AFD059A069990600320087001201D
:101D6000C873FFE7FFE700208DF81E00FFE79DF82E
:101D70001E00032819DCFFE79DF81E1040F25040BA
:101D8000C2F2000050F8210000F046FB30B9FFE736
:101D90009DF81F0001308DF81F00FFE7FFE79DF859
:101DA0001E0001308DF81E00E1E79DF81F0002289B
:101DB0000EDBFFE740F27541C2F20001002008701F
:101DC0004DF6D821C2F2010108708DF81F0009E01C
:101DD00040F27541C2F200010120087000208DF828
:101DE0001F00FFE74DF6D820C2F201000078D0B9FD
:101DF000FFE700208DF81D00FFE79DF81D00032878
:101E000010DCFFE79DF81D2040F2C211C2F2000174
:101E1000002021F81200FFE79DF81D0001308DF829
:101E20001D00EAE706E00DF039FA17F051FF16F051
:101E3000A3FDFFE74DF6AC30C2F2010040F2C21242
:101E4000C2F200024FF4007100F0BAFA40F275409D
:101E5000C2F20000007840F24441C2F20001087072
:101E60004DF6D820C2F201000078487040F2704070
:101E7000C2F2000000680CF0ADFC08B080BD00BFED
:101E80009A9999999999B9BF0000E14480B586B0B3
:101E90004DF6D020C2F201000068D0F81700007D96
:101EA000012815D0FFE740F27441C2F20001002082
:101EB000087040F22D41C2F2000101224A7388737A
:101EC00041F24A61C2F2000108804880888030E017
:101ED00040F27441C2F200010220087041F24A60EF
:101EE000C2F20000B0F9021000EE101AB8EEC00AFB
:101EF00010EE102A40F22D41C2F20001C1F8052077
:101F0000B0F9002000EE102AB8EEC00A10EE102A38
:101F1000C1F80120B0F9042000EE102AB8EEC00A82
:101F200010EE102AC1F8092082794A73C0798873AB
:101F3000FFE740F24040C2F2000000684DF6E821A1
:101F4000C2F2010105910DF0C1FA0598007801284F
:101F50000CD0FFE740F27441C2F20001002008708B
:101F600040F22D41C2F20001087008E040F22D411C
:101F7000C2F20001032008700420C873FFE70DF0CF
:101F800043F841F25460C2F2000000684DF69861D7
:101F9000C2F2010104910DF099FA04980078012829
:101FA00001D0FFE736E04DF69862C2F201020392DB
:101FB000B2F809004DF67131C2F201014881D2F840
:101FC0000B00C1F80600B2F80F00888041F2B000A3
:101FD000C2F2000090ED020A9FED841A20EE010A81
:101FE000BDEEC00A10EE100A4DF61471C2F20101E6
:101FF0008880B2F80500B2F80330C01A0880B2F841
:10200000230048805078927F02EB820200EB42006E
:102010008871FFE74DF69860C2F2010001900278E6
:102020004DF67131C2F201010A7080780873012007
:1020300088704DF61070C2F2010000680CF0CAFB07
:102040000198B0F80F002D3801460291372800F2B0
:10205000A0800299DFE801F01C9D9D9D9D259D9D1E
:102060009D9D309D9D9D9D3B9D9D9D9D469D9D9DC6
:102070009D509D9D9D9D5B9D9D9D9D669D9D9D9D56
:10208000719D9D9D9D7C9D9D9D9D879D9D9D9D92EE
:102090004DF69861C2F201014FF07E50C1F81F0069
:1020A00080E04DF69861C2F201014CF6CD40C3F6D6
:1020B0008C70C1F81F0075E04DF69861C2F2010105
:1020C00043F23330C3F69370C1F81F006AE04DF657
:1020D0009861C2F2010149F69A10C3F69970C1F8ED
:1020E0001F005FE04DF69861C2F201010020C3F6C7
:1020F000A070C1F81F0055E04DF69861C2F20101D1
:1021000046F26660C3F6A670C1F81F004AE04DF6BD
:102110009861C2F201014CF6CD40C3F6AC70C1F833
:102120001F003FE04DF69861C2F201014AF2D7303C
:10213000C3F6B070C1F81F0034E04DF69861C2F2EA
:10214000010143F23330C3F6B370C1F81F0029E038
:102150004DF69861C2F2010145F2EC10C3F6B87079
:10216000C1F81F001EE04DF69861C2F2010147F26E
:10217000A400C3F6BD70C1F81F0013E04DF69861CE
:10218000C2F2010148F65C70C3F6C270C1F81F00CC
:1021900008E04DF69861C2F201014FF07E50C1F89F
:1021A0001F00FFE740F27440C2F20000007818B947
:1021B000FFE719F0D3F900E0FFE74DF6D420C2F2B3
:1021C0000100006840F22D41C2F200010CF002FB58
:1021D00040F6CC00C2F200004DF61472C2F20102C9
:1021E00040F20111FFF7AAF806B080BD0000C84216
:1021F00086B0DDF828C0DDF824C0DDF820C0DDF8A9
:102200001CC0DDF818C005900491039202930020D1
:102210008DF80700FFE79DF80710002002290090C5
:1022200009DCFFE704989DF80710405C002818BF00
:1022300001200090FFE70098C00770B1FFE7049805
:102240009DF80720805C0599891A8870FFE79DF842
:10225000070001308DF80700DDE70599D1F803206C
:10226000D1F80730D1F80B004FF0020C6CF3C50227
:10227000C1F80730C1F80320C1F80B00DDF80CC02D
:102280000599D1F80320D1F80730D1F80B006CF391
:102290000202C1F80730C1F80320C1F80B00DDF8D5
:1022A00008C00599D1F80320D1F80730D1F80B0008
:1022B0000CF00F0C22F4707242EA8C12C1F8073055
:1022C000C1F80320C1F80B00DDF818C00599D1F85A
:1022D0000320D1F80730D1F80B000CF00F0C22F4DA
:1022E000705242EA8C22C1F80730C1F80320C1F8CD
:1022F0000B00DDF81CC00599D1F80330D1F8072098
:10230000D1F80B006CF30902C1F80330C1F80720C3
:10231000C1F80B00DDF820C00599D1F80330D1F8E1
:102320000720D1F80B006FF3DF2C6FF3942242EA01
:102330008C22C1F80330C1F80720C1F80B00DDF88A
:1023400024C00599D1F80330D1F80720D1F80B004B
:102350006FF35F5242EA4C52C1F80330C1F80720D4
:10236000C1F80B00DDF828C00599D1F80320D1F899
:102370000730D1F80B006CF30900C1F80730C1F841
:102380000320C1F80B0006B07047000081B0009038
:102390000099022081F84C0001B0704781B0009094
:1023A0000099012081F84C0001B0704782B0019083
:1023B000019800900099002081F84C0002B070470D
:1023C00080B586B0059004910392039840788DF80B
:1023D0000400039800888DF805000398C0788DF8F4
:1023E0000600039840888DF80700039840798DF81F
:1023F0000800039880888DF809000398C0798DF84B
:102400000A000398C0888DF80B000598049901AA6A
:10241000FEF794FF06B080BD81B000900098D0F820
:102420002500007D0138B0FA80F0400901B0704706
:10243000F0B589B008905820059018F035FE059940
:1024400007900798FDF790FF08980078079981F8A2
:102450004F000898D0F84200079908650898D0F80E
:10246000460007994865079808990A310BF022FD44
:10247000089942F6F920C0F60000C1F81600079846
:102480000899C1F81A00DDF820C0DCF80A00DCF871
:102490000E10DCF81220DCF81630DCF81AC0EE461C
:1024A000CEF800C0FEF7BAFE0799C1F821000798E0
:1024B000293006900898013016F062FE0146069811
:1024C0002322FDF738FF089942F2AD30C0F6000034
:1024D000C1F81E00089940F60000C4F20200C1F8DD
:1024E000260008990A20C1F83E0007980899C1F80B
:1024F0002E00DDF820E0DEF81E00DEF82210DEF807
:102500002620DEF82A30DEF82EC0DEF83240DEF873
:102510003650DEF83A60DEF83E70EE46CEF81070C7
:10252000CEF80C60CEF80850CEF80440CEF800C0CB
:1025300016F06EF80799C1F82500089800890799E8
:10254000A1F81F0007984DF63763C2F201031A780D
:10255000511C19704DF64861C2F2010141F8220088
:102560000798FFF71BFF079809B0F0BD80B540F64C
:10257000B410C2F2000003F0B9FF80BD80B540F690
:10258000F400C2F2000003F0B1FF80BD80B54DF64B
:10259000D430C2F2010003F0A9FF80BD80B540F63F
:1025A0005410C2F2000003F0A1FF80BD80B54DF6CB
:1025B0009440C2F2010003F099FF80BD80B54DF652
:1025C0003440C2F2010003F091FF80BD80B588B0B5
:1025D00040F61420C2F20000079003F087FF07982E
:1025E00041F25C02C2F20002202182F84110012176
:1025F00080F83510006846F25941C4F20201884261
:1026000008D3FFE746F20C41C4F202014FF4001078
:10261000086037E040F61420C2F20000006846F27D
:10262000B901C4F20201884209D3FFE746F208412A
:10263000C4F202014FF400100860069020E040F65A
:102640001420C2F20000006846F25901C4F20201EF
:10265000884209D3FFE746F20C01C4F202014FF4AD
:1026600000100860059008E046F20801C4F202017B
:102670004FF4001008600590FFE705980690FFE70B
:102680000698FFE740F61420C2F20000006846F208
:102690005941C4F20201884208D3FFE746F20C41D7
:1026A000C4F202014FF48010086037E040F61420B5
:1026B000C2F20000006846F2B901C4F20201884289
:1026C00009D3FFE746F20841C4F202014FF480103B
:1026D0000860049020E040F61420C2F20000006878
:1026E00046F25901C4F20201884209D3FFE746F2DB
:1026F0000C01C4F202014FF480100860039008E05E
:1027000046F20801C4F202014FF480100860039001
:10271000FFE703980490FFE70498FFE740F61420D2
:10272000C2F20000006846F25941C4F20201884238
:1027300008D3FFE746F20C41C4F202014FF4002037
:10274000086037E040F61420C2F20000006846F24C
:10275000B901C4F20201884209D3FFE746F20841F9
:10276000C4F202014FF400200860029020E040F61D
:102770001420C2F20000006846F25901C4F20201BE
:10278000884209D3FFE746F20C01C4F202014FF47C
:1027900000200860019008E046F20801C4F202013E
:1027A0004FF4002008600190FFE701980290FFE7D6
:1027B0000298FFE7FFE740F61421C2F20001002073
:1027C00081F83400FFE708B080BD000082B00190BE
:1027D0000198007810384AF6AB21CAF6AA21A0FB6E
:1027E00001100009009000994FF25C20C0F6010032
:1027F000405C0199C8650098042807D3FFE7019958
:102800000868042262F30900886506E001990868F7
:1028100040F2FF3290438865FFE70198806D02B077
:102820007047000086B0059000208DF813000598D1
:10283000806A03900598806910BBFFE703980290B7
:1028400003281BD80299DFE801F0020D0218059851
:1028500090F82F00C00720B1FFE701208DF813008A
:10286000FFE70CE00598C06AB0F1C07F04D1FFE734
:1028700001208DF81300FFE701E000E0FFE745E0ED
:1028800005988069B0F5005F25D1FFE703980190B6
:1028900003281ED80199DFE801F002060211012089
:1028A0008DF8130016E0059890F82F00C00720B1AE
:1028B000FFE701208DF81300FFE70BE00598C06AE1
:1028C000B0F1C07F04D1FFE701208DF81300FFE7CE
:1028D00000E0FFE719E003980090032804D3FFE726
:1028E0000098032804D00EE001208DF813000BE0BF
:1028F000059890F82F00C00720B1FFE701208DF860
:102900001300FFE700E0FFE7FFE7FFE79DF8130094
:1029100006B0704784B00390029101920093009832
:1029200003990968486003988068402809D1FFE747
:102930000198039909688860029803990968C8603A
:1029400008E002980399096888600198039909686A
:10295000C860FFE704B0704784B003900291019211
:10296000009303980168086820F4802008600098AC
:1029700003990968486003988068402809D1FFE7F7
:102980000198039909688860029803990968C860EA
:1029900008E002980399096888600198039909681A
:1029A000C860FFE704B0704781B040F2FC10C2F28B
:1029B0000000007870BBFFE740F2FC11C2F200019A
:1029C0000120087041F20400CEF20000006800907F
:1029D000009840F29011C2F200010968884208D2C2
:1029E000FFE74CF29821C2F201010868013008604B
:1029F000FFE741F20400CEF20000006840F29011BF
:102A0000C2F20001086040F2FC11C2F20001002095
:102A10000870FFE701B0704780B584B0039041F2C1
:102A20000400CEF200000068029002980399096841
:102A3000401A00EE100AB8EE400A40F28810C2F2C6
:102A4000000090ED001AB8EE411A80EE010A8DEDFB
:102A5000010A029803990860FFF7A6FF9DED010A9D
:102A600004B080BD80B582B001904EF6FC51CEF22C
:102A70000001086840F08070086041F20401CEF265
:102A800000010020086041F20002CEF2000211684D
:102A900041F001011160019944F24022C0F20F029D
:102AA0004A4340F28811C2F200010A600A6844F603
:102AB000D353C1F26203A2FB033292094CF2942376
:102AC000C2F201031A6009684DF68362C4F21B3238
:102AD000A1FB0221890C40F28C12C2F200021160AB
:102AE0004CF29821C2F201010860FFF75DFF02B0CD
:102AF00080BD00007047000080B586B00590059845
:102B0000243004900598D0F8350003900398029083
:102B10000398D0F8250000F0D5F9049801784078A2
:102B200040EA01200299088004988178C07840EA40
:102B300001200299888004980179407940EA0120B7
:102B40000299C880039890F84F00032804D1FFE74A
:102B500002990020087204E00498807902990872B2
:102B6000FFE7029908884988401AADF80600BDF9C8
:102B700006000299098888421CD0FFE7BDF90600CB
:102B8000B0F5805F07DDFFE70299B1F80900013871
:102B9000A1F809000DE0BDF9060010F5805F07DA25
:102BA000FFE70299B1F809000130A1F80900FFE739
:102BB000FFE7FFE70299B1F90920088800EB4230EE
:102BC000C1F813000299D1F81300B1F81F20801A40
:102BD00000EE100AB8EEC00A9FED211A20EE010A9D
:102BE00010EE100AC1F81B000299D1F80B0000EE9C
:102BF000100A9FED1C1A20EE010AB1F9040001EE43
:102C0000100AB8EEC11A9FED182A21EE021A30EE12
:102C1000010A10EE100AC1F80B000299D1F80F005A
:102C200000EE100A9FED111A20EE010AB1F906001C
:102C300001EE100AB8EEC11A9FED0D2A21EE021A1C
:102C400030EE010A10EE100AC1F80F000299D1F817
:102C50001300C1F8170002990888488006B080BDAB
:102C60000000343D9899193E9A99593FD0CCCC3DFB
:102C70006666663F80B5082004F002F880BD00005B
:102C800080B5102003F0FCFF80BD000080B520203F
:102C900003F0F6FF80BD000072B6FFE7FEE700001C
:102CA00083B002908DF80710002000909DF8070077
:102CB00018B9FFE70020009017E09DF807000128F1
:102CC00004D1FFE74FF4807000900DE09DF80700FD
:102CD000022804D1FFE74FF40070009003E04FF4A6
:102CE00040700090FFE7FFE7FFE743F61041C4F2B2
:102CF0000201086820F440700860009A08681043D8
:102D00000860086820F0F8000860029A086840EA45
:102D1000C20040F002000860086840F4803008609B
:102D200003B0704743F60040C4F20200006880051B
:102D300000281FD5FFE743F60041C4F202010868EE
:102D400020F400700860FFE743F60041C4F202017E
:102D5000086840F400600860086820F400600860BB
:102D6000FFE743F60041C4F20201086840F4007036
:102D70000860FFE743F60040C4F202000068400527
:102D800000281FD5FFE743F60041C4F2020108689E
:102D900020F480600860FFE743F60041C4F20201BE
:102DA000086840F480500860086820F4805008608B
:102DB000FFE743F60041C4F20201086840F4806076
:102DC0000860FFE77047000080B503F05FFE80BD3C
:102DD00043F60C40C4F202000068C00600280FD57C
:102DE000FFE741F2C001C2F20001C86940F01000E3
:102DF000C86143F60C41C4F2020110200860FFE7ED
:102E000043F60C40C4F202000068800600280FD58B
:102E1000FFE741F2C001C2F20001C86940F00800BA
:102E2000C86143F60C41C4F2020120200860FFE7AC
:102E300043F60C40C4F202000068400600280FD59B
:102E4000FFE741F2C001C2F20001C86940F004008E
:102E5000C86143F60C41C4F2020140200860FFE75C
:102E600043F60C40C4F202000068000600280FD5AB
:102E7000FFE741F2C001C2F20001C86940F0020060
:102E8000C86143F60C41C4F2020180200860FFE7EC
:102E900043F60C40C4F202000068800700280FD5FA
:102EA000FFE741F2C001C2F20001C86940F0200012
:102EB000C86143F60C41C4F2020102200860FFE73A
:102EC0007047000080B582B00190019900204862EF
:102ED0000199012008750198006AB0B1FFE70198D7
:102EE000C06990B1FFE70198C169006A884728B1BD
:102EF000FFE7019901200875009004E00199022084
:102F000008750090FFE7009800E0FFE70198C068AF
:102F100038B1FFE70199C868498A012204F0A8F88E
:102F2000FFE702B080BD000086B0DDF830C0DDF8FC
:102F30002CC0DDF828C0DDF824C0DDF820C0DDF8A5
:102F40001CC0DDF818C00590049103920293002084
:102F50008DF80700FFE79DF8071000200229009078
:102F600009DCFFE704989DF80710405C002818BFB3
:102F700001200090FFE70098C00770B1FFE70498B8
:102F80009DF80720805C0599891A8870FFE79DF8F5
:102F9000070001308DF80700DDE70599D1F803003F
:102FA000D1F80720052363F3C500C1F80720C1F855
:102FB00003000599039BD1F80300D1F8072063F3C0
:102FC0000200C1F80720C1F803000599029BD1F85F
:102FD0000300D1F8072003F00F0320F4707040EADB
:102FE0008310C1F80720C1F803000599069BD1F8AA
:102FF0000300D1F8072003F00F0320F4705040EADB
:103000008320C1F80720C1F803000599099BD1F876
:103010000320D1F8070063F30900C1F80320C1F8C9
:10302000070005990A9BD1F80320D1F807006FF338
:10303000DF236FF3942040EA8320C1F80320C1F816
:10304000070005990B9BD1F80320D1F807006FF317
:103050005F5040EA4350C1F80320C1F807000599CA
:10306000079BD1F80300D1F807206FF35F236FF3BC
:10307000963040EA8330C1F80720C1F80300059973
:10308000089BD1F80300D1F807206FF3DF5040EA26
:10309000C350C1F80720C1F803000C980599C1F886
:1030A0000B0006B07047000083B001908DF803104C
:1030B000019828B9FFE74FF6FF70ADF80A0027E046
:1030C0004FF6FF70ADF80000FFE79DF80300411ECA
:1030D0008DF80310B8B1FFE70198411C0191007809
:1030E0008DF80200BDF800109DF802004840C2B201
:1030F0004FF2C630C0F6010030F8120080EA11200D
:10310000ADF80000E1E7BDF80000ADF80A00FFE708
:10311000BDF80A0003B0704783B001908DF803102A
:10312000019820B9FFE7FF208DF80B0022E0FF2077
:103130008DF80100FFE79DF80300411E8DF8031094
:1031400098B1FFE79DF8010001994A1C01920978A6
:1031500048408DF802009DF802104FF25C10C0F656
:103160000100405C8DF80100E5E79DF801008DF855
:103170000B00FFE79DF80B0003B070470000000054
:1031800080B592B00CF016F940F2C430C2F20000E3
:1031900090ED000A20EE000A4CF22050C2F201002D
:1031A00090ED001A21EE011A30EE010A8DED100AA1
:1031B00041F2BC60C2F200000F909DED100AB5EE26
:1031C000400AF1EE10FA0BDBFFE79DED100A1AF052
:1031D00003FD0F9880ED000A00208DF8470006E0FF
:1031E0000F9900200860FF208DF84700FFE741F2AB
:1031F000BC60C2F200000068FDF723FB41EC100B3D
:103200008DED000B4CF22450C2F201000068FDF776
:1032100018FB9DED000B41EC110B1AF015FB51EC66
:10322000100B9FED410B53EC102B0C930B92FDF701
:10323000D6F941EC100B51EC100B9FED3D0B53EC0C
:10324000102B0E930D92FDF758F941EC100B51EC39
:10325000100BFDF709FB014640F2C830C2F2000036
:103260000590016040F2C431C2F2000191ED000A04
:103270008DED030A90ED000A9FED2F1A8DED041AD3
:1032800020EE010AFCF7D8FFB0EE401A9DED030ACC
:1032900080EE010A10EE100AFDF7D3FA9DED041A34
:1032A0000246059806920A46069942EC101B8DEDDF
:1032B000080B4CF22051C2F2010191ED000A8DED94
:1032C000070A90ED000A20EE010AFCF7B5FFB0EE08
:1032D000401A9DED070A80EE010A10EE100AFDF774
:1032E000B0FA9DED080B41EC110B1AF0ADFA0B9AF8
:1032F0000C9B51EC100BFDF772F90D9A0E9B41ECF3
:10330000100B51EC100BFDF7F8F841EC100B51ECE1
:10331000100BFDF7A9FA4CF22851C2F20101086026
:1033200012B080BD00BF00BF00000060FB2109405B
:10333000000000000080664035FA8E3C80B584B005
:1033400047F61020C1F6FF700068039047F614207E
:10335000C1F6FF700068029047F61820C1F6FF70B2
:10336000006801900199039808440390039888B17C
:10337000FFE703984CF2CC11C2F201010091023137
:10338000082209F007FE009902981231042209F080
:1033900001FEFFE704B080BD83B080B58FB013930A
:1033A000129211910D9011A80490A5208DF82C0077
:1033B0000D98C0EB00100630ADF82D004CF2F8501F
:1033C000C2F2010000788DF82F000BA80421FFF74E
:1033D000A3FE8DF8300040F20130ADF831000D98B9
:1033E00001380146029106281AD80299DFE801F057
:1033F000040918180E18130040F20110ADF824004B
:1034000012E040F20510ADF824000DE040F2031088
:10341000ADF8240008E04FF48270ADF8240003E01A
:103420004FF0FF300E907EE040F2C420C2F2000068
:103430000178ADF82610007800F58070ADF828000E
:103440004CF27850C2F2010001907F21FCF78CFF12
:1034500001990B98DDF82F20C1F803200860BDF812
:103460002800A1F80B000998C1F8070000208DF88A
:103470000F00FFE79DF80F000D9988422BDAFFE758
:10348000049B03F110000490186859689A68D3F8F7
:103490000B30CDF81F300792069105909DF80F0074
:1034A000C0EB00114CF27850C2F2010001440598C3
:1034B000069A079BDDF81FC0C1F818C0C1F8153087
:1034C000C1F81120C1F80D00FFE79DF80F00013091
:1034D0008DF80F00CEE70D98C0EB00100D30C1B293
:1034E0004CF27850C2F201000090FFF7DDFD009928
:1034F0000D9AC2EB02120A44A2F80D000D98C0EB1F
:1035000000100F3082B241F25C00C2F2000008F0FD
:1035100065FA4CF2F851C2F20101087801300870E6
:1035200000200E90FFE70E980FB0BDE8804003B07A
:103530007047000084B002900191029890F820003A
:103540008DF803009DF80300012805D0FFE79DF8E2
:10355000030002280AD1FFE7019A0298016848692E
:103560001043486100208DF80F0008E00299486A76
:1035700040F48020486201208DF80F00FFE79DF89D
:103580000F0004B07047000088B0069005910492C7
:103590000393069890F820008DF8070006980068BD
:1035A000806800900598806808B9FFE700E0FFE7B1
:1035B0009DF80700012806D0FFE79DF807000228C4
:1035C00040F08080FFE79DF80300400700280CD4FE
:1035D000FFE79DF803000007002806D4FFE79DF8E9
:1035E0000300C006002864D5FFE70098C0F301601F
:1035F000029002990120884003990860059880682C
:1036000068B9FFE705980168C06840EA415006992B
:103610000968029A01EB0211C1F880010EE00599D8
:103620004A688868C96840EAC20008430699096880
:10363000029A01EB0211C1F88001FFE705980069C9
:1036400006990968029A01EB0211C1F884010598F4
:10365000007D01280CD1FFE706980068029900EB75
:103660000111D1F8840140F48070C1F88401FFE7B2
:103670000498406806990968029A01EB0211C1F8A2
:103680008C010498006806990968029A01EB0211FE
:10369000C1F8880106980068029900EB0111D1F881
:1036A000800140F00100C1F8800100208DF81F006A
:1036B00011E00699486A40F40010486201208DF834
:1036C0001F0008E00699486A40F480204862012003
:1036D0008DF81F00FFE79DF81F0008B0704700003D
:1036E00086B004900391049800680190049890F8C3
:1036F00020008DF803009DF80300012806D0FFE7A5
:103700009DF80300022840F0B080FFE746F2004039
:10371000C4F2000001900199D1F8000240F00100CC
:10372000C1F800020199D1F8000220F47C50C1F8E0
:1037300000020398426A0199D1F8000240EA02208F
:10374000C1F800020398406900F01F010120884081
:103750000290029A0199D1F81C029043C1F81C0210
:103760000398C069F0B9FFE7029A0199D1F80C02F9
:103770009043C1F80C02039A9088D168526940EADC
:103780000140019901EBC201C1F84002039A10887F
:103790009168526940EA0140019901EBC201C1F808
:1037A0004402FFE70398C06901281ED1FFE7029A8F
:1037B0000199D1F80C021043C1F80C02039A9088C9
:1037C0001168526940EA0140019901EBC201C1F858
:1037D0004002039A90899168526940EA0140019938
:1037E00001EBC201C1F84402FFE70398806940B9C8
:1037F000FFE7029A0199D1F804029043C1F804024C
:1038000007E0029A0199D1F804021043C1F80402BA
:10381000FFE70398006940B9FFE7029A0199D1F8E0
:1038200014029043C1F8140207E0029A0199D1F8FA
:1038300014021043C1F81402FFE70398006A01283C
:1038400008D1FFE7029A0199D1F81C021043C1F890
:103850001C02FFE70199D1F8000220F00100C1F835
:10386000000200208DF8170008E00499486A40F42F
:103870008020486201208DF81700FFE79DF81700AF
:1038800006B0704781B0009001B0704784B00390DB
:10389000029100200190039890F820008DF8030019
:1038A0009DF80300012805D0FFE79DF803000228DA
:1038B00012D1FFE7029838B9FFE703980068C068A3
:1038C00000F00300019006E003980068006900F032
:1038D00003000190FFE7FFE7019804B07047000084
:1038E00086B00490039102920193049890F820000E
:1038F0008DF803009DF80300012806D0FFE79DF82E
:103900000300022840F0E880FFE7039880B9FFE752
:1039100004980068C068800748B9FFE70499486ABE
:1039200040F40010486201208DF81700DDE00FE040
:10393000049800680069800748B9FFE70499486A5D
:1039400040F40010486201208DF81700CDE0FFE739
:1039500004980068039900EB0110D0F8B00100F062
:103960000400029988600298806858B9FFE70498BB
:103970000068039900EB0110D0F8B001400D0299E6
:1039800008600AE004980068039900EB0110D0F881
:10399000B001C00802994860FFE7049800680399E5
:1039A00000EB0110D0F8B00100F002000299C860ED
:1039B00004980068039900EB0110D0F8B40100F0FE
:1039C0000F00082804D3FFE70299082008610BE0E4
:1039D00004980068039900EB0110D0F8B40100F0DE
:1039E0000F0002990861FFE704980068039900EB53
:1039F0000110D0F8B40180B2000A029988610498DD
:103A00000068039900EB0110D0F8B401000C029992
:103A1000486104980068039900EB0110D0F8B801E0
:103A20000199087004980068039900EB0110D0F820
:103A3000B801000A0199487004980068039900EBE6
:103A40000110D0F8B801000C019988700498006842
:103A5000039900EB0110D0F8B801000E0199C8706D
:103A600004980068039900EB0110D0F8BC0101999B
:103A7000087104980068039900EB0110D0F8BC01AC
:103A8000000A0199487104980068039900EB01103D
:103A9000D0F8BC01000C0199887104980068039962
:103AA00000EB0110D0F8BC01000E0199C871039819
:103AB00038B9FFE704980168C86840F02000C86082
:103AC00006E004980168086940F020000861FFE7FB
:103AD00000208DF8170008E00499486A40F480201F
:103AE000486201208DF81700FFE79DF8170006B027
:103AF0007047000080B58AB00990002008900998AE
:103B00000068406907900998006840680690099825
:103B100000688068059009980068C068049009985A
:103B200000680069039009980068806902909DF818
:103B30001C00C007002800F09480FFE79DF81400E7
:103B4000C00758B3FFE709980168012088609DF815
:103B500014008007002804D5FFE7099800F0F4FB63
:103B60001BE09DF814004007002805D5FFE70898E2
:103B700040F4006008900FE09DF814000007002852
:103B800005D5FFE7089840F48050089003E00998B5
:103B900000F0D6FBFFE7FFE7FFE7FFE79DF8150022
:103BA000C00760B3FFE7099801684FF48070886030
:103BB0009DF815008007002804D5FFE7099800F05C
:103BC000CBFB1BE09DF815004007002805D5FFE75B
:103BD000089840F4005008900FE09DF81500000789
:103BE000002805D5FFE7089840F48040089003E0DE
:103BF000099800F0ADFBFFE7FFE7FFE7FFE79DF85F
:103C00001600C00760B3FFE7099801684FF48030E1
:103C100088609DF816008007002804D5FFE7099802
:103C200000F0A2FB1BE09DF816004007002805D518
:103C3000FFE7089840F4004008900FE09DF8160058
:103C40000007002805D5FFE7089840F48030089069
:103C500003E0099800F084FBFFE7FFE7FFE7FFE7D9
:103C6000FFE79DF81C000007002810D5FFE79DF82E
:103C70001000C006002809D5FFE7089840F400703E
:103C80000890099801681020C860FFE7FFE79DF8D9
:103C90001C00400700280FD5FFE79DF81000000723
:103CA000002808D5FFE7099801680820C86009982E
:103CB00000F0E0FAFFE7FFE79DF81C00800700280E
:103CC0000BD5FFE709980068C068800720B1FFE7BF
:103CD000099800F0D3FAFFE7FFE79DF81C004006C3
:103CE000002810D5FFE79DF80C00C006002809D574
:103CF000FFE7089840F48060089009980168102058
:103D00000861FFE7FFE79DF81C00800600280FD53B
:103D1000FFE79DF80C000007002808D5FFE7099889
:103D2000016808200861099800F0B2FAFFE7FFE790
:103D30009DF81C00C00600280BD5FFE70998006815
:103D40000069800720B1FFE7099800F0A5FAFFE7B6
:103D5000FFE79DF81E00800700280FD5FFE79DF8BC
:103D60001800C006002808D5FFE709980168102050
:103D70004860099800F09AFAFFE7FFE79DF81E00F7
:103D8000C00778B1FFE79DF818000007002808D5A4
:103D9000FFE70998016808204860099800F0E8FAF0
:103DA000FFE7FFE79DF81D000006002840F18D8029
:103DB000FFE79DF818004007002840F18180FFE7E9
:103DC0009DF81D00C00750B1FFE79DF80800C0072F
:103DD00028B1FFE7089840F001000890FFE79DF840
:103DE0001D00800700280BD5FFE79DF8080080071D
:103DF000002805D5FFE7089840F002000890FFE78B
:103E00009DF81D00400700280BD5FFE79DF808002E
:103E10004007002805D5FFE7089840F00400089007
:103E2000FFE79DF81D000007002848D5FFE79DF833
:103E3000080010F0700F42D0FFE7029800F0700009
:103E400001460191102814D0FFE70198202815D0D1
:103E5000FFE70198302816D0FFE70198402817D0D7
:103E6000FFE70198502818D0FFE70198602819D083
:103E70001DE0089840F00800089019E0089840F00C
:103E80001000089014E0089840F0200008900FE01F
:103E9000089840F0400008900AE0089840F0800040
:103EA000089005E0089840F48070089000E0FFE773
:103EB00009980168886920F070008861FFE7FFE7D2
:103EC0000998016804204860FFE7089848B1FFE7B7
:103ED000089A0999486A104348620998FFF7D2FC8A
:103EE000FFE70AB080BD000080B584B00290029860
:103EF00020B9FFE701208DF80F00E0E0029890F86C
:103F0000200020B9FFE7029800F0DEF8FFE70298F2
:103F10000168086840F00100086003F0C1F80190F2
:103F2000FFE7029800684068C007A8B9FFE703F000
:103F3000B7F80199401A0B280DD3FFE70299486A98
:103F400040F4003048620299052081F820000120E9
:103F50008DF80F00B3E0E4E702980168086820F0EC
:103F60000200086003F09CF80190FFE702980068E7
:103F700040688007002815D5FFE703F091F8019904
:103F8000401A0B280DD3FFE70299486A40F400302D
:103F900048620299052081F8200001208DF80F0069
:103FA0008DE0E3E70298007E012807D1FFE7029841
:103FB0000168086840F08000086006E00298016827
:103FC000086820F080000860FFE70298407E012822
:103FD00007D1FFE702980168086840F040000860D8
:103FE00006E002980168086820F040000860FFE7DA
:103FF0000298807E012807D1FFE7029801680868CF
:1040000040F02000086006E002980168086820F08F
:1040100020000860FFE70298C07E012807D1FFE773
:1040200002980168086820F01000086006E0029815
:104030000168086840F010000860FFE70298007F00
:10404000012807D1FFE702980168086840F00800DE
:10405000086006E002980168086820F0080008601F
:10406000FFE70298407F012807D1FFE70298016827
:10407000086840F00400086006E0029801680868DB
:1040800020F004000860FFE7029B19685A689868EE
:10409000D3F80CC040EA0C00D3F810C040EA0C0082
:1040A0005B691843013A1043C861029900204862D5
:1040B000029A012182F820108DF80F00FFE79DF889
:1040C0000F0004B080BD000080B594B013900020B4
:1040D0001290119010900F900E901398006846F275
:1040E0000041C4F20001884253D1FFE740F23C2076
:1040F000C2F200000168013101600068012812D19C
:10410000FFE7FFE700200D9043F64000C4F20200F5
:10411000016841F000710160006800F000700D90CE
:104120000D98FFE7FFE7FFE700200C9043F6300013
:10413000C4F20200016841F008010160006800F06B
:1041400008000C900C98FFE703200E9002210F91BD
:1041500000210791109111900920129040F6004023
:10416000C4F202000EA902F0A7FD079A14200590E0
:104170000521069103F0A4FD059803F097FD06992B
:10418000079A1520089003F09BFD089803F08EFD18
:104190006EE01398006846F60001C4F20001884200
:1041A00065D1FFE7FFE700200B9043F64000C4F223
:1041B0000200016841F080610160006800F08060E9
:1041C0000B900B98FFE740F23C20C2F20000016820
:1041D000013101600068012812D1FFE7FFE70020EC
:1041E0000A9043F64000C4F20200016841F00071F9
:1041F0000160006800F000700A900A98FFE7FFE78E
:10420000FFE70020099043F63000C4F20200016885
:1042100041F002010160006800F002000990099875
:10422000FFE760200E9002200F9000200390109076
:10423000032011900920129040F20040C4F20200C5
:104240000EA902F039FD039A402001900521029148
:1042500003F036FD019803F029FD0299039A4120ED
:10426000049003F02DFD049803F020FDFFE7FFE725
:1042700014B080BD81B0009001B0704780B582B0AD
:10428000019001980021FDF7DDF802B080BD00002B
:1042900081B0009001B0704780B582B00190019864
:1042A0000121FDF7CFF802B080BD000081B0009081
:1042B00001B0704780B584B00290029890F8200059
:1042C00001282FD1FFE70299022081F820000298EF
:1042D0000168086820F00100086002F0E1FE01902A
:1042E000FFE7029800684068C007A8B1FFE702F046
:1042F000D7FE0199401A0B280DD3FFE70299486AAF
:1043000040F4003048620299052081F82000012025
:104310008DF80F000FE0E4E70299002048628DF865
:104320000F0008E00299486A40F40020486201202A
:104330008DF80F00FFE79DF80F0004B080BD00006E
:1043400081B0009001B0704781B0009001B070471B
:1043500081B0009001B0704781B0009001B070470B
:1043600081B0009001B0704781B0009001B07047FB
:1043700081B0009001B0704780B5ADF56C7DDDF87F
:10438000B8C3EA90E991E892E79300208DF89B0387
:10439000EA988068802809D1FFE7EA994FF4807095
:1043A000486501208DF8AF0301F0FBBFEA98C06BB0
:1043B00040B1FFE7EA98406C20B1FFE7EA98C06C93
:1043C00040B9FFE7EA994020486501208DF8AF0326
:1043D00001F0E7BFFFE7EA9890F83400012805D123
:1043E000FFE702208DF8AF0301F0DBBFEA9901205F
:1043F00081F83400FFE7FFE7EA9890F835000128DC
:1044000041F0C087FFE7EA99022081F83500EA9978
:1044100000204865EA980168086840F48020086038
:10442000E798EA9909680861EA98E999E89AEE9BA1
:10443000FEF770FAEA98006846F25941C4F20201A8
:104440008842C0F0BF80FFE7EA98006846F210019A
:10445000C4F20201884203D1FFE72020E590AAE0E0
:10446000EA98006846F21041C4F20201884203D182
:10447000FFE72020E4909BE0EA98006846F2700194
:10448000C4F20201884203D1FFE72020E3908CE0D0
:10449000EA98006846F27041C4F20201884203D1F2
:1044A000FFE72020E2907DE0EA98006846F22801CC
:1044B000C4F20201884204D1FFE74FF40060E190AA
:1044C0006DE0EA98006846F22841C4F20201884291
:1044D00004D1FFE74FF40060E0905DE0EA980068E7
:1044E00046F28801C4F20201884204D1FFE74FF48A
:1044F0000060DF904DE0EA98006846F28841C4F21F
:104500000201884204D1FFE74FF40060DE903DE0F5
:10451000EA98006846F24001C4F20201884204D1E0
:10452000FFE74FF40010DD902DE0EA98006846F2B6
:104530004041C4F20201884204D1FFE74FF4001069
:10454000DC901DE0EA98006846F2A001C4F2020186
:10455000884204D1FFE74FF40010DB900DE0EA98A9
:10456000016846F2A042C4F202024FF0006091429C
:1045700008BF4FF40010DB90FFE7DB98DC90FFE70B
:10458000DC98DD90FFE7DD98DE90FFE7DE98DF90B6
:10459000FFE7DF98E090FFE7E098E190FFE7E19820
:1045A000E290FFE7E298E390FFE7E398E490FFE70B
:1045B000E498E590FFE7E59846F20C41C4F2020169
:1045C000086055E2EA98006846F2B901C4F20201B7
:1045D0008842C0F0C080FFE7EA98006846F2100108
:1045E000C4F20201884203D1FFE72020DA90AAE05A
:1045F000EA98006846F21041C4F20201884203D1F1
:10460000FFE72020D9909BE0EA98006846F270010D
:10461000C4F20201884203D1FFE72020D8908CE049
:10462000EA98006846F27041C4F20201884203D160
:10463000FFE72020D7907DE0EA98006846F2280145
:10464000C4F20201884204D1FFE74FF40060D69023
:104650006DE0EA98006846F22841C4F202018842FF
:1046600004D1FFE74FF40060D5905DE0EA98006860
:1046700046F28801C4F20201884204D1FFE74FF4F8
:104680000060D4904DE0EA98006846F28841C4F298
:104690000201884204D1FFE74FF40060D3903DE06F
:1046A000EA98006846F24001C4F20201884204D14F
:1046B000FFE74FF40010D2902DE0EA98006846F230
:1046C0004041C4F20201884204D1FFE74FF40010D8
:1046D000D1901DE0EA98006846F2A001C4F2020100
:1046E000884204D1FFE74FF40010D0900DE0EA9823
:1046F000016846F2A042C4F202024FF0006091420B
:1047000008BF4FF40010D090FFE7D098D190FFE79A
:10471000D198D290FFE7D298D390FFE7D398D49066
:10472000FFE7D498D590FFE7D598D690FFE7D698C5
:10473000D790FFE7D798D890FFE7D898D990FFE7B0
:10474000D998DA90FFE7DA9846F20841C4F20201FC
:104750000860CF908AE1EA98006846F25901C4F2F5
:1047600002018842C0F0C080FFE7EA98006846F284
:104770001001C4F20201884203D1FFE72020CE904D
:10478000AAE0EA98006846F21041C4F202018842A9
:1047900003D1FFE72020CD909BE0EA98006846F225
:1047A0007001C4F20201884203D1FFE72020CC90BF
:1047B0008CE0EA98006846F27041C4F20201884237
:1047C00003D1FFE72020CB907DE0EA98006846F215
:1047D0002801C4F20201884204D1FFE74FF40060CF
:1047E000CA906DE0EA98006846F22841C4F20201DE
:1047F000884204D1FFE74FF40060C9905DE0EA9879
:10480000006846F28801C4F20201884204D1FFE741
:104810004FF40060C8904DE0EA98006846F2884185
:10482000C4F20201884204D1FFE74FF40060C79050
:104830003DE0EA98006846F24001C4F20201884275
:1048400004D1FFE74FF40010C6902DE0EA9800680D
:1048500046F24041C4F20201884204D1FFE74FF41E
:104860000010C5901DE0EA98006846F2A001C4F26D
:104870000201884204D1FFE74FF40010C4900DE01C
:10488000EA98016846F2A042C4F202024FF00060CA
:10489000914208BF4FF40010C490FFE7C498C59040
:1048A000FFE7C598C690FFE7C698C790FFE7C7988F
:1048B000C890FFE7C898C990FFE7C998CA90FFE77A
:1048C000CA98CB90FFE7CB98CC90FFE7CC98CD90DF
:1048D000FFE7CD98CE90FFE7CE9846F20C01C4F2E8
:1048E00002010860C390BEE0EA98006846F2100139
:1048F000C4F20201884203D1FFE72020C290AAE05F
:10490000EA98006846F21041C4F20201884203D1DD
:10491000FFE72020C1909BE0EA98006846F2700112
:10492000C4F20201884203D1FFE72020C0908CE04E
:10493000EA98006846F27041C4F20201884203D14D
:10494000FFE72020BF907DE0EA98006846F228014A
:10495000C4F20201884204D1FFE74FF40060BE9028
:104960006DE0EA98006846F22841C4F202018842EC
:1049700004D1FFE74FF40060BD905DE0EA98006865
:1049800046F28801C4F20201884204D1FFE74FF4E5
:104990000060BC904DE0EA98006846F28841C4F29D
:1049A0000201884204D1FFE74FF40060BB903DE074
:1049B000EA98006846F24001C4F20201884204D13C
:1049C000FFE74FF40010BA902DE0EA98006846F235
:1049D0004041C4F20201884204D1FFE74FF40010C5
:1049E000B9901DE0EA98006846F2A001C4F2020105
:1049F000884204D1FFE74FF40010B8900DE0EA9828
:104A0000016846F2A042C4F202024FF000609142F7
:104A100008BF4FF40010B890FFE7B898B990FFE7CF
:104A2000B998BA90FFE7BA98BB90FFE7BB98BC90E3
:104A3000FFE7BC98BD90FFE7BD98BE90FFE7BE982A
:104A4000BF90FFE7BF98C090FFE7C098C190FFE715
:104A5000C198C290FFE7C29846F20801C4F2020171
:104A60000860C390FFE7C398CF90FFE7CF98FFE7B8
:104A7000EA98006846F25941C4F202018842C0F047
:104A8000BF80FFE7EA98006846F21001C4F2020115
:104A9000884203D1FFE71020B790AAE0EA980068A7
:104AA00046F21041C4F20201884203D1FFE7102010
:104AB000B6909BE0EA98006846F27001C4F20201E9
:104AC000884203D1FFE71020B5908CE0EA98006897
:104AD00046F27041C4F20201884203D1FFE7102080
:104AE000B4907DE0EA98006846F22801C4F2020121
:104AF000884204D1FFE74FF48060B3906DE0EA98FC
:104B0000006846F22841C4F20201884204D1FFE75E
:104B10004FF48060B2905DE0EA98006846F2880148
:104B2000C4F20201884204D1FFE74FF48060B190E3
:104B30004DE0EA98006846F28841C4F202018842DA
:104B400004D1FFE74FF48060B0903DE0EA98006840
:104B500046F24001C4F20201884204D1FFE74FF45B
:104B60008010AF902DE0EA98006846F24041C4F210
:104B70000201884204D1FFE74FF48010AE901DE09F
:104B8000EA98006846F2A001C4F20201884204D10A
:104B9000FFE74FF48010AD900DE0EA98016846F20F
:104BA000A042C4F202024FF08060914208BF4FF46D
:104BB0008010AD90FFE7AD98AE90FFE7AE98AF9054
:104BC000FFE7AF98B090FFE7B098B190FFE7B198DA
:104BD000B290FFE7B298B390FFE7B398B490FFE7C5
:104BE000B498B590FFE7B598B690FFE7B698B79040
:104BF000FFE7B79846F20C41C4F20201086055E2A3
:104C0000EA98006846F2B901C4F202018842C0F095
:104C1000C080FFE7EA98006846F21001C4F2020182
:104C2000884203D1FFE71020AC90AAE0EA98006820
:104C300046F21041C4F20201884203D1FFE710207E
:104C4000AB909BE0EA98006846F27001C4F2020162
:104C5000884203D1FFE71020AA908CE0EA98006810
:104C600046F27041C4F20201884203D1FFE71020EE
:104C7000A9907DE0EA98006846F22801C4F202019A
:104C8000884204D1FFE74FF48060A8906DE0EA9875
:104C9000006846F22841C4F20201884204D1FFE7CD
:104CA0004FF48060A7905DE0EA98006846F28801C2
:104CB000C4F20201884204D1FFE74FF48060A6905D
:104CC0004DE0EA98006846F28841C4F20201884249
:104CD00004D1FFE74FF48060A5903DE0EA980068BA
:104CE00046F24001C4F20201884204D1FFE74FF4CA
:104CF0008010A4902DE0EA98006846F24041C4F28A
:104D00000201884204D1FFE74FF48010A3901DE018
:104D1000EA98006846F2A001C4F20201884204D178
:104D2000FFE74FF48010A2900DE0EA98016846F288
:104D3000A042C4F202024FF08060914208BF4FF4DB
:104D40008010A290FFE7A298A390FFE7A398A490F9
:104D5000FFE7A498A590FFE7A598A690FFE7A6987F
:104D6000A790FFE7A798A890FFE7A898A990FFE76A
:104D7000A998AA90FFE7AA98AB90FFE7AB98AC90F0
:104D8000FFE7AC9846F20841C4F202010860A19026
:104D90008AE1EA98006846F25901C4F202018842A9
:104DA000C0F0C080FFE7EA98006846F21001C4F244
:104DB0000201884203D1FFE71020A090AAE0EA9800
:104DC000006846F21041C4F20201884203D1FFE7B5
:104DD00010209F909BE0EA98006846F27001C4F2B0
:104DE0000201884203D1FFE710209E908CE0EA98F0
:104DF000006846F27041C4F20201884203D1FFE725
:104E000010209D907DE0EA98006846F22801C4F2E7
:104E10000201884204D1FFE74FF480609C906DE06E
:104E2000EA98006846F22841C4F20201884204D19F
:104E3000FFE74FF480609B905DE0EA98006846F2DF
:104E40008801C4F20201884204D1FFE74FF4806078
:104E50009A904DE0EA98006846F28841C4F2020157
:104E6000884204D1FFE74FF4806099903DE0EA98D2
:104E7000006846F24001C4F20201884204D1FFE713
:104E80004FF4801098902DE0EA98006846F2404177
:104E9000C4F20201884204D1FFE74FF480109790DA
:104EA0001DE0EA98006846F2A001C4F202018842BF
:104EB00004D1FFE74FF4801096900DE0EA98016866
:104EC00046F2A042C4F202024FF08060914208BF55
:104ED0004FF480109690FFE796989790FFE7979889
:104EE0009890FFE798989990FFE799989A90FFE734
:104EF0009A989B90FFE79B989C90FFE79C989D90C9
:104F0000FFE79D989E90FFE79E989F90FFE79F98F0
:104F1000A090FFE7A09846F20C01C4F202010860DD
:104F20009590BEE0EA98006846F21001C4F20201D2
:104F3000884203D1FFE710209490AAE0EA98006825
:104F400046F21041C4F20201884203D1FFE710206B
:104F500093909BE0EA98006846F27001C4F2020167
:104F6000884203D1FFE7102092908CE0EA98006815
:104F700046F27041C4F20201884203D1FFE71020DB
:104F800091907DE0EA98006846F22801C4F202019F
:104F9000884204D1FFE74FF4806090906DE0EA987A
:104FA000006846F22841C4F20201884204D1FFE7BA
:104FB0004FF480608F905DE0EA98006846F28801C7
:104FC000C4F20201884204D1FFE74FF480608E9062
:104FD0004DE0EA98006846F28841C4F20201884236
:104FE00004D1FFE74FF480608D903DE0EA980068BF
:104FF00046F24001C4F20201884204D1FFE74FF4B7
:1050000080108C902DE0EA98006846F24041C4F28E
:105010000201884204D1FFE74FF480108B901DE01D
:10502000EA98006846F2A001C4F20201884204D165
:10503000FFE74FF480108A900DE0EA98016846F28D
:10504000A042C4F202024FF08060914208BF4FF4C8
:1050500080108A90FFE78A988B90FFE78B988C905E
:10506000FFE78C988D90FFE78D988E90FFE78E98E4
:105070008F90FFE78F989090FFE790989190FFE7CF
:1050800091989290FFE792989390FFE7939894906D
:10509000FFE7949846F20801C4F202010860959077
:1050A000FFE79598A190FFE7A198FFE7EA980068CD
:1050B00046F25941C4F202018842C0F0BF80FFE7C6
:1050C000EA98006846F21001C4F20201884203D156
:1050D000FFE708208990AAE0EA98006846F21041AC
:1050E000C4F20201884203D1FFE7082088909BE0C8
:1050F000EA98006846F27001C4F20201884203D1C6
:10510000FFE7082087908CE0EA98006846F270413B
:10511000C4F20201884203D1FFE7082086907DE0B7
:10512000EA98006846F22801C4F20201884204D1DC
:10513000FFE74FF4007085906DE0EA98006846F252
:105140002841C4F20201884204D1FFE74FF4007005
:1051500084905DE0EA98006846F28801C4F202019A
:10516000884204D1FFE74FF4007083904DE0EA9845
:10517000006846F28841C4F20201884204D1FFE788
:105180004FF4007082903DE0EA98006846F24001DA
:10519000C4F20201884204D1FFE74FF4002081905D
:1051A0002DE0EA98006846F24041C4F202018842CC
:1051B00004D1FFE74FF4002080901DE0EA980068DA
:1051C00046F2A001C4F20201884204D1FFE74FF485
:1051D00000207F900DE0EA98016846F2A042C4F2F8
:1051E00002024FF00070914208BF4FF400207F9000
:1051F000FFE77F988090FFE780988190FFE7819894
:105200008290FFE782988390FFE783988490FFE77E
:1052100084988590FFE785988690FFE78698879029
:10522000FFE787988890FFE788988990FFE789983B
:1052300046F20C41C4F20201086055E2EA980068A7
:1052400046F2B901C4F202018842C0F0C080FFE713
:10525000EA98006846F21001C4F20201884203D1C4
:10526000FFE708207E90AAE0EA98006846F2104125
:10527000C4F20201884203D1FFE708207D909BE041
:10528000EA98006846F27001C4F20201884203D134
:10529000FFE708207C908CE0EA98006846F27041B5
:1052A000C4F20201884203D1FFE708207B907DE031
:1052B000EA98006846F22801C4F20201884204D14B
:1052C000FFE74FF400707A906DE0EA98006846F2CC
:1052D0002841C4F20201884204D1FFE74FF4007074
:1052E00079905DE0EA98006846F28801C4F2020114
:1052F000884204D1FFE74FF4007078904DE0EA98BF
:10530000006846F28841C4F20201884204D1FFE7F6
:105310004FF4007077903DE0EA98006846F2400153
:10532000C4F20201884204D1FFE74FF400207690D6
:105330002DE0EA98006846F24041C4F2020188423A
:1053400004D1FFE74FF4002075901DE0EA98006853
:1053500046F2A001C4F20201884204D1FFE74FF4F3
:10536000002074900DE0EA98016846F2A042C4F271
:1053700002024FF00070914208BF4FF40020749079
:10538000FFE774987590FFE775987690FFE7769839
:105390007790FFE777987890FFE778987990FFE724
:1053A00079987A90FFE77A987B90FFE77B987C90DA
:1053B000FFE77C987D90FFE77D987E90FFE77E98E1
:1053C00046F20841C4F20201086073908AE1EA984B
:1053D000006846F25901C4F202018842C0F0C08060
:1053E000FFE7EA98006846F21001C4F20201884221
:1053F00003D1FFE708207290AAE0EA98006846F21D
:105400001041C4F20201884203D1FFE708207190E5
:105410009BE0EA98006846F27001C4F202018842FB
:1054200003D1FFE7082070908CE0EA98006846F20C
:105430007041C4F20201884203D1FFE708206F9057
:105440007DE0EA98006846F22801C4F20201884231
:1054500004D1FFE74FF400706E906DE0EA980068A9
:1054600046F22841C4F20201884204D1FFE74FF41A
:1054700000706D905DE0EA98006846F28801C4F221
:105480000201884204D1FFE74FF400706C904DE0B8
:10549000EA98006846F28841C4F20201884204D1C9
:1054A000FFE74FF400706B903DE0EA98006846F229
:1054B0004001C4F20201884204D1FFE74FF400200A
:1054C0006A902DE0EA98006846F24041C4F2020179
:1054D000884204D1FFE74FF4002069901DE0EA986C
:1054E000006846F2A001C4F20201884204D1FFE73D
:1054F0004FF4002068900DE0EA98016846F2A0425F
:10550000C4F202024FF00070914208BF4FF4002035
:105510006890FFE768986990FFE769986A90FFE7ED
:105520006A986B90FFE76B986C90FFE76C986D90B2
:10553000FFE76D986E90FFE76E986F90FFE76F98AA
:105540007090FFE770987190FFE771987290FFE795
:10555000729846F20C01C4F2020108606790BEE046
:10556000EA98006846F21001C4F20201884203D1B1
:10557000FFE708206690AAE0EA98006846F210412A
:10558000C4F20201884203D1FFE7082065909BE046
:10559000EA98006846F27001C4F20201884203D121
:1055A000FFE7082064908CE0EA98006846F27041BA
:1055B000C4F20201884203D1FFE7082063907DE036
:1055C000EA98006846F22801C4F20201884204D138
:1055D000FFE74FF4007062906DE0EA98006846F2D1
:1055E0002841C4F20201884204D1FFE74FF4007061
:1055F00061905DE0EA98006846F28801C4F2020119
:10560000884204D1FFE74FF4007060904DE0EA98C3
:10561000006846F28841C4F20201884204D1FFE7E3
:105620004FF400705F903DE0EA98006846F2400158
:10563000C4F20201884204D1FFE74FF400205E90DB
:105640002DE0EA98006846F24041C4F20201884227
:1056500004D1FFE74FF400205D901DE0EA98006858
:1056600046F2A001C4F20201884204D1FFE74FF4E0
:1056700000205C900DE0EA98016846F2A042C4F276
:1056800002024FF00070914208BF4FF400205C907E
:10569000FFE75C985D90FFE75D985E90FFE75E989E
:1056A0005F90FFE75F986090FFE760986190FFE789
:1056B00061986290FFE762986390FFE76398649057
:1056C000FFE764986590FFE765986690FFE7669846
:1056D00046F20801C4F2020108606790FFE767988C
:1056E0007390FFE77398FFE7EA98006846F2594124
:1056F000C4F202018842C0F0BF80FFE7EA98006868
:1057000046F21001C4F20201884203D1FFE70420EF
:105710005B90AAE0EA98006846F21041C4F20201E8
:10572000884203D1FFE704205A909BE0EA98006882
:1057300046F27001C4F20201884203D1FFE704205F
:1057400059908CE0EA98006846F27041C4F2020178
:10575000884203D1FFE7042058907DE0EA98006872
:1057600046F22801C4F20201884204D1FFE74FF457
:10577000807057906DE0EA98006846F22841C4F2C4
:105780000201884204D1FFE74FF4807056905DE03B
:10579000EA98006846F28801C4F20201884204D106
:1057A000FFE74FF4807055904DE0EA98006846F2AC
:1057B0008841C4F20201884204D1FFE74FF48070AF
:1057C00054903DE0EA98006846F24001C4F20201BC
:1057D000884204D1FFE74FF4802053902DE0EA98EF
:1057E000006846F24041C4F20201884204D1FFE75A
:1057F0004FF4802052901DE0EA98006846F2A00124
:10580000C4F20201884204D1FFE74FF48020519096
:105810000DE0EA98016846F2A042C4F202024FF09D
:105820008070914208BF4FF480205190FFE751985B
:105830005290FFE752985390FFE753985490FFE738
:1058400054985590FFE755985690FFE75698579013
:10585000FFE757985890FFE758985990FFE75998F5
:105860005A90FFE75A985B90FFE75B9846F20C412D
:10587000C4F20201086055E2EA98006846F2B901F4
:10588000C4F202018842C0F0C080FFE7EA980068D5
:1058900046F21001C4F20201884203D1FFE704205E
:1058A0005090AAE0EA98006846F21041C4F2020162
:1058B000884203D1FFE704204F909BE0EA980068FC
:1058C00046F27001C4F20201884203D1FFE70420CE
:1058D0004E908CE0EA98006846F27041C4F20201F2
:1058E000884203D1FFE704204D907DE0EA980068EC
:1058F00046F22801C4F20201884204D1FFE74FF4C6
:1059000080704C906DE0EA98006846F22841C4F23D
:105910000201884204D1FFE74FF480704B905DE0B4
:10592000EA98006846F28801C4F20201884204D174
:10593000FFE74FF480704A904DE0EA98006846F225
:105940008841C4F20201884204D1FFE74FF480701D
:1059500049903DE0EA98006846F24001C4F2020135
:10596000884204D1FFE74FF4802048902DE0EA9868
:10597000006846F24041C4F20201884204D1FFE7C8
:105980004FF4802047901DE0EA98006846F2A0019D
:10599000C4F20201884204D1FFE74FF48020469010
:1059A0000DE0EA98016846F2A042C4F202024FF00C
:1059B0008070914208BF4FF480204690FFE74698E0
:1059C0004790FFE747984890FFE748984990FFE7DE
:1059D00049984A90FFE74A984B90FFE74B984C90C4
:1059E000FFE74C984D90FFE74D984E90FFE74E989B
:1059F0004F90FFE74F985090FFE7509846F20841CC
:105A0000C4F20201086045908AE1EA98006846F213
:105A10005901C4F202018842C0F0C080FFE7EA9851
:105A2000006846F21001C4F20201884203D1FFE788
:105A300004204490AAE0EA98006846F21041C4F2BB
:105A40000201884203D1FFE7042043909BE0EA98DB
:105A5000006846F27001C4F20201884203D1FFE7F8
:105A6000042042908CE0EA98006846F27041C4F24B
:105A70000201884203D1FFE7042041907DE0EA98CB
:105A8000006846F22801C4F20201884204D1FFE70F
:105A90004FF4807040906DE0EA98006846F228412B
:105AA000C4F20201884204D1FFE74FF480703F90B6
:105AB0005DE0EA98006846F28801C4F2020188427B
:105AC00004D1FFE74FF480703E904DE0EA98006803
:105AD00046F28841C4F20201884204D1FFE74FF444
